S0130000777332383132625F6C69622E7372656362
S113000053C06DC06CC06BC06AC069C068C067C0B3
S113001066C065C064C063C062C061C060C05FC0C8
S11300205EC05DC05CC007634236B79BD8A71A396F
S1130030685618AEBAAB558C1D3CB7CC5763BD6D32
S1130040EDFD753EF6177231BF000000803F0800D9
S11300500000BE922449123EABAAAA2ABECDCCCC43
S11300604C3E00000080BEABAAAAAA3E00000000DD
S1130070BF000000803F0000000000084178D3BBAF
S11300804387D1133D190E3CC3BD4282AD2B3E685C
S1130090EC8276BED98FE1A93E4C80EFFFBE01C44D
S11300A0FF7F3F000000000011241FBECFE5D4E015
S11300B0DEBFCDBF22E0A4E6B0E001C01D92AC3C9F
S11300C0B207E1F710E0A0E6B0E0E8E9FEE002C024
S11300D005900D92A436B107D9F73BD2DBC690CF79
S11300E0A99A00000000000000000000A9980895EB
S11300F0A99A0000000000000000000000000000B9
S11301000000000000000000A99808958F929F92BB
S1130110AF92BF92EF92FF920F931F93CF93DF930F
S113012000E710E00F2EF8ECEF2EF2E0FF2EF02D9A
S11301301BC0B694A79497948794F8018081918109
S1130140A281B38188219921AA21BB21892B8A2BE1
S11301508B2B11F4C5DF01C0CBDF219751F70C5F66
S11301601F4FE016F10639F0C8E1D0E0812C912C44
S11301705401B394DECFDF91CF911F910F91FF9083
S1130180EF90BF90AF909F908F90089513D624E680
S113019030E040E050E088D5072E000C880B990B26
S11301A038D39B01AC010AD220E030E048EC52E4A1
S11301B069D220E030E040E85FE3FFD10895809108
S11301C0C8029091C902A091CA02B091CB02809357
S11301D06C0090936D00A0936E00B0936F00D6DF17
S11301E06093C8027093C9028093CA029093CB02B1
S11301F008954F925F926F927F928F929F92AF92E7
S1130200BF92CF92DF92EF92FF92CF93DF93CDB75D
S1130210DEB72C970FB6F894DEBF0FBECDBF40906B
S113022068005090690060906A0070906B002091A3
S11302306C0030916D0040916E0050916F00C301CD
S1130240B2010CD469837A838B839C8320E030E0F1
S113025040E85FE3C301B201B0D12091C8023091FC
S1130260C9024091CA025091CB02F8D36B017C01C0
S113027020E030E040E850E4C301B20152D44B0125
S11302805C0120E030E040E450E4C301B20149D411
S11302906D837E838F839887A701960169817A8114
S11302A08B819C818AD19B01AC0188D1A5019401E9
S11302B0D5D369877A878B879C8720E030E040E438
S11302C050E469817A818B819C81C8D34B015C01A4
S11302D020E030E040EA50E4C701B601BFD39B01FF
S11302E0AC01C501B40169D12D813E814F8158858E
S11302F0B5D39B01AC0169857A858B859C855DD1DD
S11303004B015C0120E030E040E450E4C701B60159
S1130310A5D36B017C01A3019201C301B2019ED359
S11303209B01AC01C701B60199D39B01AC01C50186
S1130330B40143D16B017C0129813A814B815C81F9
S1130340C301B2018BD39B01AC01C701B60136D105
S11303504B015C0120E030E040EE50E47FD3FFD15C
S11303606B017C01C501B401905820E030E040EEFF
S113037050E474D3F4D14B015C019B01AC01C7017F
S1130380B6011BD169837A838B839C83A501940175
S1130390C701B60113D19B01AC0169817A818B81BC
S11303A09C8170D1609364007093650080936600B3
S11303B09093670029E838E848E85CE3C301B20198
S11303C0FDD06B017C0120E030E040E85FE3D2D255
S11303D018164CF0C0926800D0926900E0926A004E
S11303E0F0926B0009C0109268001092690010929C
S11303F06A0010926B00E3DE2C960FB6F894DEBF11
S11304000FBECDBFDF91CF91FF90EF90DF90CF90E3
S1130410BF90AF909F908F907F906F905F904F9020
S1130420089520E030E040E85FE36091640070915B
S113043065008091660090916700C0D020E030E0B4
S113044040E05FE30BD320E030E0A901B7D020E027
S113045030E04FE753EC02D320E030E04FE753E4C1
S1130460ADD0A9D1982F872F762F6627089520E045
S113047030E040E85FE36091640070916500809132
S11304806600909167009AD020E030E040E05FE39E
S1130490E5D220E030E0A90191D020E030E0A901CC
S11304A0DDD220E030E0A90189D085D1CB017727C6
S11304B06627089520E030E040E85FE3609164003F
S11304C070916500809166009091670077D020E07C
S11304D030E040E05FE3C2D220E030E0A9016ED01A
S11304E020E030E0A901BAD220E030E0A90166D0D2
S11304F062D10895CF92DF92EF92FF92B8DF6B0141
S11305007C018FDFC60ED71EE81EF91ED3DFAB01B8
S1130510BC014C0D5D1D6E1D7F1DE4ECF2E020E777
S113052030E0B291A2919291829184839583A683C3
S1130530B783E217F307A9F7409370005093710053
S11305406093720070937300FF90EF90DF90CF90F0
S11305500895A19A1BDE60936C0070936D008093E4
S11305606E0090936F0012DE6093C8027093C9020C
S11305708093CA029093CB020CE211E006C0B0DD76
S11305802197E9F70150110919F0C8E1D0E0F7CF3C
S1130590E0E7F0E088EC92E011921192119211924E
S11305A0E817F907C9F7B2DD24DEA4DF8FE39CE97D
S11305B00197F1F700C00000F6CF5058BB27AA27D7
S11305C00ED09EC18FD130F094D120F031F49F3FF2
S11305D011F41EF45FC10EF4E095E7FB55C1E92F59
S11305E0A0D180F3BA17620773078407950718F040
S11305F071F49EF5B8C10EF4E0950B2EBA2FA02D20
S11306000B01B90190010C01CA01A0011124FF27BB
S1130610591B99F0593F50F4503E68F11A16F040B6
S1130620A22F232F342F4427585FF3CF46953795B5
S11306302795A795F0405395C9F77EF41F16BA0B7A
S1130640620B730B840BBAF09150A1F0FF0FBB1F28
S1130650661F771F881FC2F70EC0BA0F621F731F71
S1130660841F48F4879577956795B795F7959E3FCE
S113067008F0B3CF9395880F08F09927EE0F97955C
S1130680879508950CD03CC134D140F02BD130F083
S113069021F45F3F19F0F8C0511166C1FBC041D18C
S11306A098F39923C9F35523B1F3951B550BBB2735
S11306B0AA2762177307840738F09F5F5F4F220FE2
S11306C0331F441FAA1FA9F333D00E2E3AF0E0E8DB
S11306D030D091505040E695001CCAF729D0FE2F27
S11306E027D0660F771F881FBB1F261737074807B9
S11306F0AB07B0E809F0BB0B802DBF01FF2793586F
S11307005F4F2AF09E3F510568F0BEC02DC15F3F88
S1130710ECF3983EDCF3869577956795B795F79556
S11307209F5FC9F7880F911D9695879597F908954E
S1130730E1E0660F771F881FBB1F621773078407EA
S1130740BA0720F0621B730B840BBA0BEE1F88F7F9
S1130750E095089519F40EF097C005C19BC0E9D047
S1130760C8F39638C0F707F80F92E8942BE33AEAF7
S113077048EB5FE781D10F920F920F924DB75EB7AE
S11307800F9239D1E6E2F0E088D04F915F91EF917A
S1130790FF91E595EE1FFF1F49F0FE57E0684427DF
S11307A0EE0F441FFA95E1F74195550BF0D00F90E9
S11307B007FEE4C00895BDD088F09F5790F0B92F8C
S11307C09927B751A0F0D1F0660F771F881F991FA2
S11307D01AF0BA95C9F712C0B13081F0C4D0B1E0B3
S11307E00895C1C0672F782F8827B85F39F0B93FC3
S11307F0CCF3869577956795B395D9F73EF49095A4
S11308008095709561957F4F8F4F9F4F0895E89421
S113081009C097FB3EF490958095709561957F4F44
S11308208F4F9F4F9923A9F0F92F96E9BB279395F2
S1130830F695879577956795B795F111F8CFFAF402
S1130840BB0F11F460FF1BC06F5F7F4F8F4F9F4F33
S113085016C0882311F096E911C0772321F09EE891
S1130860872F762F05C0662371F096E8862F70E0F7
S113087060E02AF09A95660F771F881FDAF7880FD1
S11308809695879597F9089597F99F6780E870E0A2
S113089060E008959FEF80EC0895DF93CF931F935A
S11308A00F93FF92EF92DF927B018C01689405C055
S11308B0DA2EEF01DFD0FE01E894A5912591359160
S11308C045915591AEF3EF018ADEFE019701A8012F
S11308D0DA9479F7DF90EF90FF900F911F91CF9109
S11308E0DF91089500240A941616170618060906BF
S11308F0089500240A941216130614060506089592
S1130900092E0394000C11F4882352F0BB0F40F419
S1130910BF2B11F460FF04C06F5F7F4F8F4F9F4F59
S1130920089557FD9058440F551F59F05F3F71F0DB
S11309304795880F97FB991F61F09F3F79F0879542
S11309400895121613061406551FF2CF4695F1DFCB
S113095008C0161617061806991FF1CF869571055B
S1130960610508940895E894BB2766277727CB018F
S113097097F9089522D108F48FEF08959B01AC01F3
S113098060E070E080E89FE37DCE7ECF3AC1D1DFA6
S1130990E8F39923D9F3940F511DBBF391505040C0
S11309A094F059F0882332F0660F771F881F915016
S11309B05040C1F79E3F510544F7880F911D96950D
S11309C0879597F908955F3FACF0983E9CF0BB275C
S11309D0869577956795B79508F4B1609395C1F7B7
S11309E0BB0F58F711F460FFE8CF6F5F7F4F8F4F55
S11309F09F4FE3CFB9CFFA01DC01AA0FBB1F9B01C4
S1130A00AC01BF5728F422273327442750781FC04E
S1130A10B75188F4AB2F0024469537952795011CD0
S1130A20A395D2F3002069F0220F331F441FB3951E
S1130A30DAF30DD0C2CD61307105A0E88A07B9465A
S1130A4030F49B01AC01662777278827907830968D
S1130A5021F0208331834283538308950BD050CFF8
S1130A6041DF28F046DF18F0952309F00DCF12CFAF
S1130A7011247ACF56DFA0F3959FD1F3950F50E060
S1130A80551F629FF001729FBB27F00DB11D639F3C
S1130A90AA27F00DB11DAA1F649F6627B00DA11DE2
S1130AA0661F829F2227B00DA11D621F739FB00D88
S1130AB0A11D621F839FA00D611D221F749F3327F8
S1130AC0A00D611D231F849F600D211D822F762F91
S1130AD06A2F11249F5750408AF0E1F088234AF08E
S1130AE0EE0FFF1FBB1F661F771F881F91505040DA
S1130AF0A9F79E3F510570F0C7CE36CF5F3FECF3A8
S1130B00983EDCF3869577956795B795F795E795C5
S1130B109F5FC1F7FE2B880F911D9695879597F9D6
S1130B200895FA01EE0FFF1F30962105310599F162
S1130B306115710561F48038BFE39B0749F168943E
S1130B409038810561F08038BFEF9B0741F099230D
S1130B5042F5FF3FE1053105210511F1E8940894C0
S1130B60E795D901AA2329F4AB2FBE2FF85FD0F360
S1130B7010C0FF5F70F4A695E0F7F73950F019F054
S1130B80FF3A38F49F779F930CD00F9007FC90584E
S1130B9008953EF07FCE60E070E080E89FE3089522
S1130BA04FE79F775F934F933F932F933DD02F91C0
S1130BB03F914F915F9152DFD2CD990F0008550FAD
S1130BC0AA0BE0E8FEEF16161706E807F907C0F0CF
S1130BD012161306E407F50798F0621B730B840BD7
S1130BE0950B39F40A2661F0232B242B252B21F4B1
S1130BF008950A2609F4A140A6958FEF811D811D51
S1130C0008959F3F31F0915020F48795779567952B
S1130C10B795880F911D9695879597F908950EF0CD
S1130C20F0CF38CE689430CE84DEC8F39923D1F364
S1130C30C6F3DF93CF931F930F93FF92C92FDD2742
S1130C4088232AF02197660F771F881FDAF720E0A0
S1130C5030E040E85FEB9FE3883920F0803E30F0DD
S1130C6021968F77ABDCEEE4F0E003C0A7DCEBE782
S1130C70F0E013DE8B01BE01EC01FB2E6F5771090E
S1130C807595771F880B990BC4DD28E132E741E3A2
S1130C905FE3F0DEAF2D9801AE01FF900F911F913D
S1130CA0CF91DF919CDC2CCE052E97FB16F400949B
S1130CB00FD057FD05D014D007FC02D046F408C06D
S1130CC050954095309521953F4F4F4F5F4F089574
S1130CD090958095709561957F4F8F4F9F4F0895A4
S1130CE0A1E21A2EAA1BBB1BFD010DC0AA1FBB1F2C
S1130CF0EE1FFF1FA217B307E407F50720F0A21B9E
S1130D00B30BE40BF50B661F771F881F991F1A940A
S1130D1069F760957095809590959B01AC01BD0134
S1130D20CF0108958F929F92AF92BF92CF92DF929C
S1130D30EF92FF92CF93DF93EC01688179818A81EE
S1130D409B81611571058105910521F464E279EDBA
S1130D508BE597E02DE133EF41E050E0A5DF490159
S1130D605A019B01AC01A7EAB1E478D06B017C0184
S1130D70ACEEB4EFA50194017DD0DC01CB018C0D68
S1130D809D1DAE1DBF1DB7FF03C00197A109B0484B
S1130D9088839983AA83BB83BC01CD019F77DF91AC
S1130DA0CF91FF90EF90DF90CF90BF90AF909F9046
S1130DB08F9008958F929F92AF92BF92CF92DF92BD
S1130DC0EF92FF92609160007091610080916200E7
S1130DD090916300611571058105910521F464E228
S1130DE079ED8BE597E02DE133EF41E050E05CDFF6
S1130DF049015A019B01AC01A7EAB1E42FD06B0170
S1130E007C01ACEEB4EFA501940134D0DC01CB013C
S1130E108C0D9D1DAE1DBF1DB7FF03C00197A10919
S1130E20B0488093600090936100A0936200B093F7
S1130E306300BC01CD019F77FF90EF90DF90CF90CE
S1130E40BF90AF909F908F900895609360007093CF
S1130E506100809362009093630008950FD0A59F72
S1130E60900DB49F900DA49F800D911D11240895A1
S1130E70B7FFF4CFF3DF821B930B0895A29FB00159
S1130E80B39FC001A39F01D0B29F700D811D112497
S10B0E90911D0895F894FFCFB1
S1070E980100000051
S9030000FC
